:100000000C9464000C9441080C941A080C948C0015
:100010000C948C000C948C000C948C000C94740741
:100020000C948C000C948C000C948C000C948C0020
:100030000C948C000C948C000C948C000C948C0010
:100040000C94D0070C948C000C948C000C948C00B5
:100050000C948C000C948C000C948C000C948C00F0
:100060000C948C000C948C000000000024002700ED
:100070002A000000000023002600290002000000E2
:1000800000250028002B00040404040404040402D6
:100090000202020202030303030303010204081025
:1000A00020408001020408102001020408102000F2
:1000B0000000080002010000030407000000000027
:1000C000000000009A14131511241FBECFEFD8E0D2
:1000D000DEBFCDBF11E0A0E0B1E0EEE9F2E302C087
:1000E00005900D92A633B107D9F722E0A6E3B1E05F
:1000F00001C01D92A337B207E1F710E0C3E6D0E0DC
:1001000004C02197FE010E941718C236D107C9F713
:100110000E9468080C9442190C9400008F929F92E0
:10012000AF92BF92CF92DF92EF92FF92CF93209146
:100130005B0230915C0282179307E8F54B01AA2419
:10014000BB24C82DC52ED62EE72EFF24BC2DA42FF0
:1001500020916102222361F0829E40011124C92D69
:100160002C9D60011124BD2D249FF0011124AF2F7F
:10017000E0916702E0906202F090630230916402C5
:10018000E31323C09C01220F331F820F931F8E0D98
:100190009F1DE0916402E80FF92FF11DC083E091EB
:1001A0006502E80FF92FF11DB08320916602820FDE
:1001B000911DFC01A083CF91FF90EF90DF90CF9035
:1001C000BF90AF909F908F900895880F991F880FD0
:1001D000991F8E0D9F1D472F5527662777272223AE
:1001E00049F030E0249F7001259FF00C349FF00C03
:1001F00011244F2DE80FF92FF11D4083CACF833012
:1002000081F028F4813099F08230A9F00895873088
:10021000A9F08830C9F08430B1F4809180008F7DDE
:1002200003C0809180008F7780938000089584B50B
:100230008F7784BD089584B58F7DFBCF8091B0000A
:100240008F778093B00008958091B0008F7DF9CFB3
:10025000CF93DF93282F30E0F901E155FF4F8491D0
:10026000F901E556FF4FD491F901E957FF4FC491C9
:10027000CC2391F081110E94FF00EC2FF0E0EE0FF3
:10028000FF1FE358FF4FA591B4918FB7F894EC91FD
:10029000D095DE23DC938FBFDF91CF9108959091AD
:1002A000190189130BC0ECE7F0E0E4919FEF909304
:1002B0001901E13041F020F0E23059F00C942801AE
:1002C00010926E00FBCF90916F009D7F90936F0016
:1002D000F5CF909170009D7F9093700091E0909386
:1002E000B0009091B100987F94609093B10010920B
:1002F000B300E4CFCF93DF93282F30E0F901E1552D
:10030000FF4F8491F901E556FF4FD491F901E95768
:10031000FF4FC491CC23A1F081110E94FF00EC2F6C
:10032000F0E0EE0FFF1FEE58FF4FA591B491EC9156
:10033000ED2381E090E009F480E0DF91CF91089512
:1003400080E090E0FACFCF93DF9390E0FC01E55698
:10035000FF4F249189579F4FFC0184918823C9F056
:1003600090E0880F991FFC01E859FF4FA591B491C7
:10037000FC01E358FF4FC591D49161110DC09FB7A7
:10038000F8948C91209582238C938881282328834C
:100390009FBFDF91CF910895623051F49FB7F894D9
:1003A0003C91822F809583238C93E8812E2BEFCF75
:1003B0008FB7F894EC912E2B2C938FBFEACF4F92EE
:1003C0005F926F927F928F929F92AF92BF92CF92E5
:1003D000DF92EF92FF920F931F93CF93DF9300D0A2
:1003E00000D01F92CDB7DEB78C012A013B0180916E
:1003F00019018330C9F08F3F09F47FC00F900F902F
:100400000F900F900F90DF91CF911F910F91FF9060
:10041000EF90DF90CF90BF90AF909F908F907F90A4
:100420006F905F904F900895ECE7F0E084918D839A
:1004300087FDE4CF61E083E00E94A3018D818823E2
:1004400021F09D81923009F05CC14801B12CA12CB2
:1004500060E072E18AE790E0A50198010E94C7156B
:1004600029833A834B835C8369017A0181E0C81A4E
:10047000D108E108F1089FEFC916D104E104F104A5
:1004800009F00CF413C160E472E48FE090E0A50180
:1004900098010E94C71569017A0181E0C81AD10844
:1004A000E108F1089D81923009F098C08FEFC816DD
:1004B000D104E104F10409F00CF4DDC160E970ED50
:1004C00083E090E0A50198010E94C71569017A01B7
:1004D00091E0C91AD108E108F1088FEFC816D104DC
:1004E000E104F10411F00CF0A3C183E09091B1009C
:1004F000987F892B8093B100E1C083E0809319013C
:10050000ECE7F0E094919D839F3F09F477CF913021
:1005100029F158F0923009F43FC08D8187FD6ECFEC
:1005200061E083E00E94A3018CCF14BC15BC84B5AC
:10053000826084BD85B5816085BDEAE8F0E0E49124
:10054000F0E0EE0FFF1FE358FF4F85919491EEE925
:10055000F0E0E491E0934C021D826CCF1092800099
:100560001092810080918100886080938100809149
:100570008100816080938100EAE8F0E0E491F0E09E
:10058000EE0FFF1FE358FF4F85919491EEE9F0E0E5
:10059000E491E0934B024ECF1092B0001092B10064
:1005A0008091B00082608093B0008091B100816042
:1005B0008093B100EAE8F0E0E491F0E0EE0FFF1F75
:1005C000E358FF4F8591949190934A02809349029A
:1005D000EEE9F0E0E491E09348022CCF9FEFC916DA
:1005E000D104E104F10409F00CF489C068E478EE68
:1005F00081E090E0A50198010E94C71569017A0188
:1006000081E0C81AD108E108F1089D81992309F415
:1006100028C19FEFC916D104E104F10409F00CF4DC
:100620001EC162E17AE780E090E0A50194010E949A
:10063000C71569017A0181E0C81AD108E108F108FB
:100640009D81992309F4EBC08FEFC816D104E10412
:10065000F10411F008F0BFC086E048CF64E274EF07
:1006600080E090E0A50194010E94C71569017A011C
:1006700081E0C81AD108E108F10885E09FEFC916AA
:10068000D104E104F10409F008F430CF62E17AE723
:1006900080E090E0A50194010E94C71569017A01EC
:1006A00091E0C91AD108E108F108CECF81E09D811F
:1006B00091111CCF95B5987F892B85BD2FEF3FEF0A
:1006C000A901411451046104710409F043C09D81E2
:1006D000913009F45EC0923009F46DC091118ECE54
:1006E000C7BC209355023093560240935702509353
:1006F000580280916E00826080936E007FCE82E00F
:10070000D6CFB12CA12C60E072E18AE790E0A50180
:1007100098010E94C71569017A0181E0C81AD108C1
:10072000E108F108C114D10491E0E906F10404F5EF
:1007300091E08D81813011F680918100887F892B35
:10074000809381002FEF3FEFA90141145104610410
:100750007104F9F0D801AA0FBB1FA30192010E94F6
:10076000E61528EE33E040E050E00E94F915AFCFE7
:1007700068E478EE81E090E0A50198010E94C71539
:1007800069017A0181E0C81AD108E108F10893E013
:10079000D0CFD0928900C09288002093510230932C
:1007A0005202409353025093540280916F00826032
:1007B00080936F0023CEC092B30020934D023093FC
:1007C0004E0240934F02509350028091700082601D
:1007D0008093700013CEC980DA80EB80FC809AE0B1
:1007E000F594E794D794C7949A95D1F791E0C91AF4
:1007F000D108E108F10887E079CEC980DA80EB8082
:10080000FC808AE0F594E794D794C7948A95D1F751
:1008100091E0C91AD108E108F10885E04BCF8FEFCC
:10082000C816D104E104F10409F038F784E042CF9E
:1008300068E478EE81E090E0A50198010E94C71578
:1008400069017A0191E0C91AD108E108F1088FEF36
:10085000C816D104E104F10411F00CF0FFCE84E0DD
:1008600045CE8FEFC816D104E104F10411F00CF06D
:10087000D8CE83E01FCF82E039CE3FB7F894809185
:10088000370190913801A0913901B0913A0126B514
:10089000A89B05C02F3F19F00196A11DB11D3FBFB8
:1008A000BA2FA92F982F8827BC01CD01620F711D87
:1008B000811D911D42E0660F771F881F991F4A9581
:1008C000D1F70895CF92DF92EF92FF920F931F938B
:1008D000CF93DF93CDB7DEB729970FB6F894DEBF7D
:1008E0000FBECDBF8091620290916302892B09F403
:1008F00080C0C0906802D0906902E0906A02F090D7
:100900006B020E943D046C157D058E059F0550F419
:100910000E943D04609368027093690280936A02AA
:1009200090936B020E943D0400916802109169024D
:1009300020916A0230916B02601B710B820B930B4A
:100940006C32714081059105A0F2F89480915D02AE
:1009500090915E029A838983E0916202F091630232
:10096000DF0111968081898790915902E0916C0294
:10097000F0916D0280916E02992309F449C0908133
:10098000982B98879081809589238F838F818C8382
:1009900088E08B8358856F8149853B812C818981D3
:1009A0009A81508347FD252F3A952083262F39F0D1
:1009B000441F00C000006083000000C0F2CF38E098
:1009C0004D9160830000019761F7F0936D02E09311
:1009D0006C0249873B832C839A83898378940E9495
:1009E0003D04609368027093690280936A02909359
:1009F0006B0229960FB6F894DEBF0FBECDBFDF9114
:100A0000CF911F910F91FF90EF90DF90CF900895BD
:100A10009081982B98879081809589238F838F81EF
:100A20008E8388E08D8358856F8149853D812E8135
:100A300089819A81508347FD252F00C000C0208303
:100A400000C000C000C000C000C060830000262FAE
:100A50003A9541F0441F000000C000C000C000C033
:100A600000C0E8CF38E04D9100C0608300C001971E
:100A700009F7F0936D02E0936C0249873D832E8362
:100A8000ABCF8F929F92AF92BF92CF92DF92EF92B5
:100A9000FF926B017C010E943D044B015C01C1147B
:100AA000D104E104F104B9F00E943D046819790908
:100AB0008A099B09683E73408105910580F321E016
:100AC000C21AD108E108F10888EE880E83E0981E6A
:100AD000A11CB11CE4CFFF90EF90DF90CF90BF90AE
:100AE000AF909F908F900895CF92DF92EF92FF92F8
:100AF000CF93DF936B017C01D0E0C0E080915B027B
:100B000090915C02C817D90798F480911801882346
:100B100079F0B701A601CE010E948E000E94620406
:100B20006FE070E080E090E00E9441052196E6CF02
:100B3000DF91CF91FF90EF90DF90CF9008958F924B
:100B40009F92AF92BF92EF92FF920F931F93CF931A
:100B5000DF934B015C018AE0E82EF12C80911801B3
:100B60008823C9F1D0E0C0E010E000E080915B0292
:100B700090915C020817190750F4B501A401CE0149
:100B8000800F911F0E948E000D5F1F4FEFCF0E94BC
:100B9000620469E170E080E090E00E94410510E0AD
:100BA00000E080915B0290915C020817190758F4ED
:100BB00040E050E0BA01CE01800F911F0E948E00EC
:100BC0000D5F1F4FEECF2196C330D10569F681E04E
:100BD000E81AF10819F6DF91CF911F910F91FF905C
:100BE000EF90BF90AF909F908F90089508951092CE
:100BF00018012FB7F89480913B0190913C01A0918E
:100C00003D01B0913E012FBF80933F02909340027F
:100C1000A0934102B09342020895282F20952535D4
:100C200098F4822F880F880F622F681B9FEF960F12
:100C3000692F70E090E080E0CB0177276627322FA4
:100C4000330F230F622B08952A3A88F42555622F1B
:100C5000660F620F70E090E080E0982F872F762F6C
:100C60006627322F330F330F231B2150EBCF2A5A25
:100C7000822F880F880F322F381B3150622F660F5A
:100C8000620F70E090E080E0CB0177276627732B3E
:100C900008958F929F92AF92BF92FF920F931F93EE
:100CA000CF93DF93FF24FA94D0E0C0E007EE10E08A
:100CB00080913F018C171D063CF18F2D90E0B0E034
:100CC000A0E05C0199248824BA2FA92F982F8827A7
:100CD000882A992AAA2ABB2A6091060170910701E5
:100CE00080910801909109010E949C16CB01B801E6
:100CF0000E94EF17B501A4018C0F9D1F0E948E006A
:100D000021968CEEF80ED4CFDF91CF911F910F91E9
:100D1000FF90BF90AF909F908F9008958F929F9279
:100D2000AF92BF92EF92FF921F93CF93DF931FEF8B
:100D3000D0E0C0E087EEE82EF12C809140018C17C6
:100D40001D06DCF0812E912CB12CA12C60910A01A2
:100D500070910B0180910C0190910D010E949C16E5
:100D6000CB01B7010E94EF17B501A4018C0F9D1FA5
:100D70000E948E0021961451E0CFDF91CF911F91F8
:100D8000FF90EF90BF90AF909F908F900895AF929B
:100D9000BF92CF92DF92EF92FF921F93CF93DF9398
:100DA0001FEFD0E0C0E097EEA92EB12C8091410159
:100DB0008C171D06F4F0C12ED12CF12CE12C7601FC
:100DC000DD24CC2460910E0170910F0180911001FF
:100DD000909111010E949C16CB01B5010E94EF1762
:100DE000B701A6018C0F9D1F0E948E002196145101
:100DF000DDCFDF91CF911F91FF90EF90DF90CF90EB
:100E0000BF90AF900895AF92BF92CF92DF92EF92D2
:100E1000FF921F93CF93DF931FEFD0E0C0E097EED8
:100E2000A92EB12C809142018C171D06FCF0C12E19
:100E3000D12CF12CE12CFE2CED2CDC2CCC2460915F
:100E400012017091130180911401909115010E947B
:100E50009C16CB01B5010E94EF17B701A6018C0FBC
:100E60009D1F0E948E0021961451DCCFDF91CF91FF
:100E70001F91FF90EF90DF90CF90BF90AF900895BB
:100E80000F931F93CF93DF93C4E2D1E006E311E009
:100E900048EC50E060E070E0899199910E94DF0198
:100EA00066EE70E080E090E00E94410583E00E94E1
:100EB0004F010C171D0761F768EE73E080E090E0CA
:100EC0000E944105D0E0C0E040E050E0BA01CE0110
:100ED0000E948E002196C73ED105B1F7DF91CF91D8
:100EE0001F910F910C9462041F920F920FB60F92F4
:100EF00011242F933F934F935F936F937F938F931F
:100F00009F93AF93BF93EF93FF9380914D02909186
:100F10004E02A0914F02B0915002892B8A2B8B2B4D
:100F2000D1F190914802E0914902F0914A0280810A
:100F30008927808380914D0290914E02A0914F02AB
:100F4000B0915002181619061A061B069CF48091DF
:100F50004D0290914E02A0914F02B0915002019724
:100F6000A109B10980934D0290934E02A0934F02C4
:100F7000B0935002FF91EF91BF91AF919F918F91EC
:100F80007F916F915F914F913F912F910F900FBE85
:100F90000F901F901895809119010E944F01EACF80
:100FA0001F920F920FB60F9211242F933F938F939E
:100FB0009F93AF93BF9380913B0190913C01A0918F
:100FC0003D01B0913E013091360123E0230F2D37D2
:100FD00058F50196A11DB11D2093360180933B0168
:100FE00090933C01A0933D01B0933E018091370165
:100FF00090913801A0913901B0913A010196A11D5B
:10100000B11D8093370190933801A0933901B093BB
:101010003A01BF91AF919F918F913F912F910F9086
:101020000FBE0F901F90189526E8230F0296A11D62
:10103000B11DD2CF1F920F920FB60F9211242F9392
:101040003F934F935F936F937F938F939F93AF9350
:10105000BF93EF93FF93E0910201F0910301099593
:10106000FF91EF91BF91AF919F918F917F916F9180
:101070005F914F913F912F910F900FBE0F901F9056
:1010800018951F920F920FB60F9211242F933F9332
:101090004F935F936F937F938F939F93AF93BF9380
:1010A000EF93FF93E0910001F09101010995FF9109
:1010B000EF91BF91AF919F918F917F916F915F91D0
:1010C0004F913F912F910F900FBE0F901F90189549
:1010D000CF93DF93CDB7DEB764970FB6F894DEBF3A
:1010E0000FBECDBF789484B5826084BD84B5816025
:1010F00084BD85B5826085BD85B5816085BD8091E3
:101100006E00816080936E0010928100809181005A
:101110008260809381008091810081608093810052
:10112000809180008160809380008091B100846014
:101130008093B1008091B00081608093B000809175
:101140007A00846080937A0080917A008260809334
:101150007A0080917A00816080937A0080917A0091
:10116000806880937A001092C10080E480937C00B4
:1011700080917A00806480937A0080917A0086FD65
:10118000FCCF8091780060917900762F682F072E30
:10119000000C880B990B611571058105910511F003
:1011A0000E94BE15E2E5F1E089E392E02FE721938A
:1011B0008E179F07E1F780915F029091600297FD83
:1011C00007C061E00E94A30180915F020E94280194
:1011D00081E080935A020E94620462E088E00E94EB
:1011E000A30162E087E00E94A30162E086E00E9422
:1011F000A30162E085E00E94A30162E084E00E9416
:10120000A30187EF95E09093010180930001809105
:1012100069008C7F80936900E89A62E082E00E9416
:10122000A30182E0282E312C80914702811137C022
:10123000E0904602809145022E2D280F3327331F60
:10124000E0904402E20EF32EF11C80914302E80E7E
:10125000F11CE114F10419F58FB7F89440913B01AA
:1012600050913C0160913D0170913E018FBF809192
:101270001801811106C380913F0290914002A09114
:101280004102B0914202481B590B6A0B7B0B413261
:101290005E446105710518F081E08093180188E0D3
:1012A0000E947A017C01892B09F015C180913E02D0
:1012B000823008F410C18091470281110CC164EFA3
:1012C00071E080E090E00E94410521E02093470218
:1012D0004AEF50E060E070E087E891E00E94DF01B3
:1012E00066EE70E080E090E00E94410583E00E949D
:1012F0004F014AEF50E060E070E08BE092E00E9426
:10130000DF0166EE70E080E090E00E94410583E03E
:101310000E944F014AEF50E060E070E083E992E004
:101320000E94DF0166EE70E080E090E00E944105DF
:1013300083E00E944F0144EF51E060E070E080E103
:1013400093E00E94DF0166EE70E080E090E00E9492
:10135000410583E00E944F0166EE70E080E090E07E
:101360000E9441054AEF50E060E070E083E992E0BE
:101370000E94DF0166EE70E080E090E00E9441058F
:1013800083E00E944F014EEE52E060E070E080E1A9
:1013900093E00E94DF0166EE70E080E090E00E9442
:1013A000410583E00E944F0140E050E0BA01C701CF
:1013B0000E948E003FEFE31AF30A87EEE816F1046D
:1013C00099F70E94620460ED77E080E090E00E946F
:1013D000410540E050E06FEF70E08CE090E00E944B
:1013E0008E0040E050E06FEF70E08BE090E00E94F4
:1013F0008E000E94620440E050E0BA0180E991E072
:101400000E94DF0160ED77E080E090E00E944105FE
:1014100083E00E944F0140E050E0BA018CE090E090
:101420000E948E0040E050E0BA018BE090E00E9404
:101430008E0040E05FEF6FEF70E08AE090E00E9486
:101440008E0040E05FEF6FEF70E089E090E00E9477
:101450008E000E94620440E050E0BA0188E592E00C
:101460000E94DF0160ED77E080E090E00E9441059E
:1014700083E00E944F0140E050E0BA0189E090E033
:101480000E948E0040E050E0BA018AE090E00E94A5
:101490008E0040E05FEF60E070E088E090E00E9446
:1014A0008E0040E05FEF60E070E087E090E00E9437
:1014B0008E000E94620440E050E0BA0180EB94E0AC
:1014C0000E94DF0160ED77E080E090E00E9441053E
:1014D00083E00E944F0187E00E947A017C01109115
:1014E0004702892B09F06CC011116AC08091460235
:1014F000811166C091E09093460280913E028F5F19
:1015000080933E0248EC50E060E070E084EF91E0B0
:101510000E94DF01D12CC12C40E05FEF60E070E061
:10152000C6010E948E00AFEFCA1ADA0AB7EECB16D8
:10153000D10491F70E94620464E670E080E090E0DC
:101540000E944105D12CC12C40E050E0BA01C601F7
:101550000E948E002FEFC21AD20A37EEC316D104B2
:1015600099F70E94620464E670E080E090E00E94D7
:101570004105D12CC12C40E05FEF60E070E0C60176
:101580000E948E008FEFC81AD80A97EEC916D104B0
:1015900091F70E94620464E670E080E090E00E94AF
:1015A000410540E050E0BA01C7010E948E00AFEF54
:1015B000EA1AFA0AB7EEEB16F10499F70E946204F0
:1015C00086E00E947A017C01892B09F06CC0111120
:1015D0006AC080914502811166C021E020934502D6
:1015E00080913E028F5F80933E0248EC50E060E0C5
:1015F00070E088E592E00E94DF01D12CC12C40E030
:1016000050E06FEF70E0C6010E948E003FEFC31AFA
:10161000D30A87EEC816D10491F70E94620464E6EB
:1016200070E080E090E00E944105D12CC12C40E0A8
:1016300050E0BA01C6010E948E009FEFC91AD90A74
:10164000A7EECA16D10499F70E94620464E670E01E
:1016500080E090E00E944105D12CC12C40E050E098
:101660006FEF70E0C6010E948E00BFEFCB1ADB0A5D
:1016700027EEC216D10491F70E94620464E670E07E
:1016800080E090E00E94410540E050E0BA01C701CF
:101690000E948E003FEFE31AF30A87EEE816F1048A
:1016A00099F70E94620485E00E947A017C01892BEF
:1016B00009F06CC011116AC080914402811166C0AA
:1016C00091E09093440280913E028F5F80933E02AE
:1016D00048EC50E060E070E08CEB92E00E94DF01AB
:1016E000D12CC12C4FEF50E060E070E0C6010E94A9
:1016F0008E00AFEFCA1ADA0AB7EECB16D10491F713
:101700000E94620464E670E080E090E00E9441057F
:10171000D12CC12C40E050E0BA01C6010E948E00DD
:101720002FEFC21AD20A37EEC316D10499F70E94DE
:10173000620464E670E080E090E00E944105D12CF4
:10174000C12C4FEF50E060E070E0C6010E948E00B7
:101750008FEFC81AD80A97EEC916D10491F70E94E4
:10176000620464E670E080E090E00E94410540E0A1
:1017700050E0BA01C7010E948E00AFEFEA1AFA0AE0
:10178000B7EEEB16F10499F70E94620484E00E9420
:101790007A017C01892B09F093C2111191C28091C9
:1017A0004302811166C021E02093430280913E02F2
:1017B0008F5F80933E0248EC50E060E070E080E292
:1017C00093E00E94DF01D12CC12C40E05FEF6FEF6E
:1017D00070E0C6010E948E003FEFC31AD30A87EE65
:1017E000C816D10491F70E94620464E670E080E0BC
:1017F00090E00E944105D12CC12C40E050E0BA019C
:10180000C6010E948E009FEFC91AD90AA7EECA1618
:10181000D10499F70E94620464E670E080E090E0F1
:101820000E944105D12CC12C40E05FEF6FEF70E0CA
:10183000C6010E948E00BFEFCB1ADB0A27EEC2164C
:10184000D10491F70E94620464E670E080E090E0C9
:101850000E94410540E050E0BA01C7010E948E009D
:101860003FEFE31AF30A87EEE816F10499F70E94B6
:10187000620420E030E0232B09F4D6CC0E94000063
:10188000D3CC813009F00BCD8091160190911701D6
:1018900001968630910564F59093170180931601A7
:1018A00040933F0250934002609341027093420282
:1018B00080911601909117018330910509F47CC144
:1018C000E4F48130910509F440C0029709F461C144
:1018D00040E050E0BA01C7010E948E00AFEFEA1A63
:1018E000FA0AB7EEEB16F10499F70E946204D7CC1E
:1018F0003092170120921601D3CF8430910509F45C
:1019000083C1B12CA12C059719F7D12CC12C912C96
:10191000812C80915B0290915C028816990608F0F8
:10192000A1C1C501880D991D6FEF70E00E940318D9
:101930000E940D06AB01BC01C601880D991D0E94D5
:101940008E00A3E08A0E911CE4CF4AEF50E060E0E5
:1019500070E087E891E00E94DF0166EE70E080E0D1
:1019600090E00E94410583E00E944F014AEF50E061
:1019700060E070E08BE092E00E94DF0166EE70E0D4
:1019800080E090E00E94410583E00E944F014AEF11
:1019900050E060E070E083E992E00E94DF0166EED3
:1019A00070E080E090E00E94410583E00E944F01DA
:1019B0004DE750E060E070E080E193E00E94DF01DD
:1019C00066EE70E080E090E00E94410583E00E94B6
:1019D0004F016DE770E080E090E00E9441054BE42C
:1019E00050E060E070E080E193E00E94DF016BE492
:1019F00070E080E090E00E94410583E00E944F018A
:101A00004BE450E060E070E080E193E00E94DF0191
:101A10006BE470E080E090E00E94410583E00E946A
:101A20004F014BE450E060E070E080E193E00E9401
:101A3000DF016BE470E080E090E00E94410583E00C
:101A40000E944F014DE750E060E070E083E992E0D2
:101A50000E94DF0166EE70E080E090E00E944105A8
:101A600083E00E944F016DE770E080E090E00E940B
:101A700041054BE450E060E070E083E992E00E94B1
:101A8000DF016BE470E080E090E00E94410583E0BC
:101A90000E944F014BE450E060E070E083E992E087
:101AA0000E94DF016BE470E080E090E00E9441055D
:101AB00083E00E944F014BE450E060E070E083E976
:101AC00092E00E94DF016BE470E080E090E00E9411
:101AD000410583E00E944F014AEF50E060E070E072
:101AE0008BE092E00E94DF0166EE70E080E090E023
:101AF0000E94410583E00E944F014AEF50E060E000
:101B000070E083E992E00E94DF0166EE70E080E021
:101B100090E00E94410583E00E944F014AEF50E0AF
:101B200060E070E08BE092E00E94DF0166EE70E022
:101B300080E090E00E94410583E00E944F0144EF65
:101B400051E060E070E087E891E00E94DF0164EF1F
:101B500071E080E090E00E94410583E00E944F0127
:101B600060E070E08FEF90E00E94740560E07FEF2E
:101B700080E090E00E9474056FEF70E080E090E0FC
:101B80000E94740560E07FEF8FEF90E00E94740583
:101B90009FCE6FE77FE78FE790E00E949F0560E0B0
:101BA00070E08FE790E00E949F056FE770E080E0B3
:101BB00090E00E949F058CCED12CC12CB12CA12C81
:101BC00080915B0290915C02A816B90668F48A2D98
:101BD0008C0D0E940D06AB01BC01C5010E948E0058
:101BE0009FEFA91AB90AECCF0E94620464E170E089
:101BF00080E090E00E944105AFEFCA1ADA0AC114F2
:101C0000B1E0DB06D9F664CED12CC12C912C812C0D
:101C1000B12CA12C60915B0270915C02A616B706F4
:101C200088F4C4010E94EF17862F8C0D0E940D06C8
:101C3000AB01BC01C5010E948E002FEFA21AB20AAF
:101C40009394E8CF0E94620464E170E080E090E049
:101C50000E9441058FEFC81AD80AC11495E0D90631
:101C6000A9F636CE0E94620462E370E080E090E064
:101C70000E944105912C812C80915B0290915C0225
:101C80008816990660F440E050E0BA01C601880D5C
:101C9000991D0E948E00B3E08B0E911CEDCF2FEFAB
:101CA000C21AD20A33E0C316D10409F030CE8FEF46
:101CB000A81AB80AA11491E0B90609F026CE08CEF8
:101CC000113009F0D6CDF12CE12C40E050E0BA0102
:101CD000C7010E948E009FEFE91AF90AA7EEEA16E3
:101CE000F10499F780913D028130F9F4C0903902F6
:101CF000D0903A02E0903B02F0903C0287E00E94D4
:101D00007A01892BF1F410923D022DEC3CEC4CE46D
:101D10005EE3C701B6010E942B16609339027093EF
:101D20003A0280933B0290933C0280913D028111E4
:101D300008C087E00E947A01019719F4B1E0B093DE
:101D40003D02409012015090130160901401709078
:101D50001501C301B2010E949C16CB0167EE70E031
:101D60000E94EF17FC01EE5AFE4F608170E090E098
:101D700080E00E94CD166B017C0120E030E04EEF48
:101D800052E40E94971687FF22C0A701960160E0E7
:101D900070E08EEF92E40E942A1626EA3BE944E4C2
:101DA0005BE30E9482179B01AC0160913902709144
:101DB0003A0280913B0290913C020E942A16609365
:101DC000390270933A0280933B0290933C0220E0E8
:101DD00030E04EEF52E4C701B6010E947D1718169D
:101DE00014F520E030E04EEF52E4C701B6010E9446
:101DF0002A1626EA3BE944E45BE30E9482179B0132
:101E0000AC016091390270913A0280913B0290914D
:101E10003C020E942B166093390270933A02809321
:101E20003B0290933C02C0903902D0903A02E0907D
:101E30003B02F0903C022FE832EC45E75CE3C7013F
:101E4000B6010E9482179B01AC01C701B6010E9436
:101E50002A1669837A838B839C83609339027093FB
:101E60003A0280933B0290933C0280915101813071
:101E7000F9F4C0904D01D0904E01E0904F01F090E8
:101E8000500186E00E947A01892BF1F410925101F1
:101E90002DEC3CEC4CE45EE3C701B6010E942B162E
:101EA00060934D0170934E0180934F0190935001C8
:101EB00080915101811108C086E00E947A0101974A
:101EC00019F421E02093510180910E0190910F01AE
:101ED000A0911001B09111018D839E83AF83B887CB
:101EE000BC01CD010E949C16CB0167EE70E00E9400
:101EF000EF17FC01EE5AFE4F608170E090E080E049
:101F00000E94CD166B017C0120E030E04EEF52E4E0
:101F10000E94971687FF22C0A701960160E070E03B
:101F20008EEF92E40E942A1626EA3BE944E45BE342
:101F30000E9482179B01AC0160914D0170914E018E
:101F400080914F01909150010E942A1660934D019B
:101F500070934E0180934F019093500120E030E048
:101F60004EEF52E4C701B6010E947D17181614F512
:101F700020E030E04EEF52E4C701B6010E942A167D
:101F800026EA3BE944E45BE30E9482179B01AC0133
:101F900060914D0170914E0180914F0190915001DF
:101FA0000E942B1660934D0170934E0180934F0158
:101FB00090935001C0904D01D0904E01E0904F01A0
:101FC000F09050012FE832EC45E75CE3C701B60121
:101FD0000E9482179B01AC01C701B6010E942A161C
:101FE00069877A878B879C8760934D0170934E0138
:101FF00080934F019093500180914C018130F9F40E
:10200000C0904801D0904901E0904A01F0904B0106
:1020100085E00E947A01892BF1F410924C012DEC9D
:102020003CEC4CE45EE3C701B6010E942B166093C2
:1020300048017093490180934A0190934B0180912C
:102040004C01811108C085E00E947A01019719F4C2
:1020500091E090934C0180910A0190910B01A09125
:102060000C01B0910D018D879E87AF87B88BBC01A5
:10207000CD010E949C16CB0167EE70E00E94EF1725
:10208000FC01EE5AFE4F608170E090E080E00E941B
:10209000CD166B017C0120E030E04EEF52E40E944F
:1020A000971687FF22C0A701960160E070E08EEFCF
:1020B00092E40E942A1626EA3BE944E45BE30E948C
:1020C00082179B01AC016091480170914901809198
:1020D0004A0190914B010E942A1660934801709327
:1020E000490180934A0190934B0120E030E04EEF8C
:1020F00052E4C701B6010E947D17181614F520E0BE
:1021000030E04EEF52E4C701B6010E942A1626EADB
:102110003BE944E45BE30E9482179B01AC016091C0
:1021200048017091490180914A0190914B010E94B0
:102130002B16609348017093490180934A01909354
:102140004B01C0904801D0904901E0904A01F090C5
:102150004B012FE832EC45E75CE3C701B6010E9472
:1021600082179B01AC01C701B6010E942A164B01E0
:102170005C018092480190924901A0924A01B0927C
:102180004B01809147018130F9F4C0904301D09018
:102190004401E0904501F090460184E00E947A01FC
:1021A000892BF1F4109247012DEC3CEC4CE45EE3FA
:1021B000C701B6010E942B1660934301709344013E
:1021C000809345019093460180914701811108C099
:1021D00084E00E947A01019719F491E090934701FD
:1021E0008091060190910701A0910801B091090129
:1021F000898B9A8BAB8BBC8BBC01CD010E949C164A
:10220000CB0167EE70E00E94EF17FC01EE5AFE4F23
:10221000608170E090E080E00E94CD166B017C014F
:1022200020E030E04EEF52E40E94971687FF22C074
:10223000A701960160E070E08EEF92E40E942A16FA
:1022400026EA3BE944E45BE30E9482179B01AC0170
:102250006091430170914401809145019091460144
:102260000E942A16609343017093440180934501B4
:102270009093460120E030E04EEF52E4C701B601F2
:102280000E947D17181614F520E030E04EEF52E45E
:10229000C701B6010E942A1626EA3BE944E45BE343
:1022A0000E9482179B01AC0160914301709144012F
:1022B00080914501909146010E942B166093430145
:1022C000709344018093450190934601C09043016F
:1022D000D0904401E0904501F09046012FE832ECA7
:1022E00045E75CE3C701B6010E9482179B01AC0180
:1022F000C701B6010E942A166B017C01C0924301FE
:10230000D0924401E0924501F092460129813A8140
:102310004B815C81C301B2010E942B162B013C0151
:1023200040921201509213016092140170921501B3
:1023300029853A854B855C856D817E818F81988565
:102340000E942B1669837A838B839C8360930E0192
:1023500070930F018093100190931101A5019401D6
:102360006D857E858F8598890E942B164B015C01B7
:1023700080920A0190920B01A0920C01B0920D0183
:10238000A701960169897A898B899C890E942B16FD
:102390006B017C01C0920601D0920701E092080116
:1023A000F09209011091420197EE199FB00111249A
:1023B000072E000C880B990B0E94CD169B01AC01D7
:1023C000C301B2010E947D17181674F41F5F1093A9
:1023D000420140E050E0BA0184EF91E00E94DF0149
:1023E000309205012092040110914101A7EE1A9F3D
:1023F000B0011124072E000C880B990B0E94CD16FA
:102400009B01AC0169817A818B819C810E947D173F
:10241000181674F41F5F1093410140E050E0BA01B8
:1024200088E592E00E94DF013092050120920401CC
:1024300010914001B7EE1B9FB0011124072E000C34
:10244000880B990B0E94CD169B01AC01C501B4010C
:102450000E947D17181674F41F5F1093400140E02E
:1024600050E0BA018CEB92E00E94DF01309205014E
:102470002092040110913F0127EE129FB001112418
:10248000072E000C880B990B0E94CD169B01AC0106
:10249000C701B6010E947D17181674F41F5F1093D0
:1024A0003F0140E050E0BA0180E293E00E94DF018A
:1024B000309205012092040180914201863008F497
:1024C00068C0F12CE12C40E05FEF60E070E0C701F4
:1024D0000E948E003FEFE31AF30A87EEE816F1043C
:1024E00091F70E9462040E944007109242011092EC
:1024F00041011092400110923F011092120110927E
:102500001301109214011092150110920E011092F5
:102510000F01109210011092110110920A011092F5
:102520000B0110920C0110920D01109206011092F5
:1025300007011092080110920901109239021092BD
:102540003A0210923B0210923C0210924D011092FE
:102550004E0110924F0110925001109248011092BA
:10256000490110924A0110924B01109243011092BE
:1025700044011092450110924601109246021092B9
:1025800045021092440210924302109247021092A8
:102590003E0280914101863008F468C0F12CE12CA4
:1025A00040E050E06FEF70E0C7010E948E009FEFA7
:1025B000E91AF90AA7EEEA16F10491F70E946204FB
:1025C0000E94400710924201109241011092400176
:1025D00010923F01109212011092130110921401F7
:1025E0001092150110920E0110920F01109210011D
:1025F0001092110110920A0110920B0110920C011D
:1026000010920D011092060110920701109208011C
:10261000109209011092390210923A0210923B0274
:1026200010923C0210924D0110924E0110924F01F7
:1026300010925001109248011092490110924A01E3
:1026400010924B01109243011092440110924501E7
:1026500010924601109246021092450210924402D6
:10266000109243021092470210923E028091400164
:10267000863008F468C0F12CE12C4FEF50E060E0A8
:1026800070E0C7010E948E00BFEFEB1AFB0A27EE35
:10269000E216F10491F70E9462040E944007109232
:1026A0004201109241011092400110923F0110929C
:1026B0001201109213011092140110921501109240
:1026C0000E0110920F011092100110921101109240
:1026D0000A0110920B0110920C0110920D01109240
:1026E0000601109207011092080110920901109240
:1026F000390210923A0210923B0210923C02109260
:102700004D0110924E0110924F0110925001109203
:1027100048011092490110924A0110924B01109207
:10272000430110924401109245011092460110920B
:1027300046021092450210924402109243021092F7
:10274000470210923E0280913F01863008F468C033
:10275000F12CE12C40E05FEF6FEF70E0C7010E94C9
:102760008E003FEFE31AF30A87EEE816F10491F7C3
:102770000E9462040E94400710924201109241019F
:102780001092400110923F01109212011092130119
:10279000109214011092150110920E0110920F0167
:1027A000109210011092110110920A0110920B0167
:1027B00010920C0110920D01109206011092070167
:1027C00010920801109209011092390210923A02F7
:1027D00010923B0210923C0210924D0110924E0159
:1027E00010924F011092500110924801109249012D
:1027F00010924A0110924B01109243011092440131
:102800001092450110924601109246021092450224
:1028100010924402109243021092470210923E021C
:102820000E946F1523E030E040E050E00E94C715A1
:102830006F5F6130B9F580914602813011F40E94DA
:10284000030780914502813011F40E94C7068091F0
:102850004402813011F40E948E068091430281303F
:1028600011F40E9449060E94620465E070E080E075
:1028700090E00E9441058091040190910501181695
:10288000190614F00C94390C01979093050180936C
:102890000401892B11F00C94390C83E00E944F0144
:1028A0000C94390C00914502F090430210914402BF
:1028B0006230A1F4013011F40E94C706113011F406
:1028C0000E948E0691E0F91202C00E944906809192
:1028D0004602813041F60E940307C5CF6330A9F458
:1028E000113011F40E948E06A1E0FA1202C00E947B
:1028F000490680914602813011F40E94030701309D
:1029000009F0B1CF0E94C706AECFB1E0FB1202C002
:102910000E94490680914602813011F40E9403070B
:10292000013011F40E94C706113009F09CCF0E94BB
:102930008E0699CFCF93DF932FB7F89480913B0108
:1029400090913C01A0913D01B0913E012FBF809339
:102950003F0290934002A0934102B0934202109232
:102960005A0210926102109268021092690210924B
:102970006A0210926B0281E0809367028093640286
:102980001092650292E09093660280935902C5EB23
:10299000D2E0D0935E02C0935D0285EB92E00E948C
:1029A0001D189093630280936202009799F1FC01D5
:1029B0009E01119221503040E1F787EE90E0909314
:1029C0005C0280935B028EE090E0909360028093C3
:1029D0005F0280915A02882339F061E08EE00E9404
:1029E000A3018EE00E942801E5E9F0E0E491F0E027
:1029F000EE0FFF1FE358FF4F8591949190936D0266
:102A000080936C02E9EAF0E0E491E0936E02DF91DA
:102A1000CF91089510925E0210925D0210925C02B6
:102A200010925B02D0CF80916202909163020E946B
:102A3000B91880915F029091600297FD03C060E039
:102A40000C94A30108958F929F92AF92BF92CF9260
:102A5000DF92EF92FF92CF93DF93EC01688179814F
:102A60008A819B81611571058105910521F464E2DC
:102A700079ED8BE597E02DE133EF41E050E00E94E6
:102A8000C71549015A019B01AC01A7EAB1E40E94B4
:102A9000E6156B017C01ACEEB4EFA50194010E9438
:102AA000F415C60ED71EE81EF91EF7FE06C081E01B
:102AB000C81AD108E10880E8F80AC882D982EA82F7
:102AC000FB82C701B6019F77DF91CF91FF90EF9016
:102AD000DF90CF90BF90AF909F908F9008958F928E
:102AE0009F92AF92BF92CF92DF92EF92FF9260914E
:102AF0001A0170911B0180911C0190911D016115BB
:102B000071058105910521F464E279ED8BE597E08B
:102B10002DE133EF41E050E00E94C71549015A0111
:102B20009B01AC01A7EAB1E40E94E6156B017C01B0
:102B3000ACEEB4EFA50194010E94F415C60ED71EA9
:102B4000E81EF91EF7FE06C081E0C81AD108E108A8
:102B500080E8F80AC0921A01D0921B01E0921C0191
:102B6000F0921D01C701B6019F77FF90EF90DF90B3
:102B7000CF90BF90AF909F908F90089560931A016F
:102B800070931B0180931C0190931D010895052EE5
:102B900097FB1EF400940E94DE1557FD07D00E949B
:102BA000F91507FC03D04EF40C94DE1550954095B2
:102BB000309521953F4F4F4F5F4F089590958095E9
:102BC000709561957F4F8F4F9F4F08950E941B1600
:102BD000A59F900DB49F900DA49F800D911D112471
:102BE0000895B7FF0C94E6150E94E615821B930B1F
:102BF0000895A1E21A2EAA1BBB1BFD010DC0AA1F3E
:102C0000BB1FEE1FFF1FA217B307E407F50720F055
:102C1000A21BB30BE40BF50B661F771F881F991FD0
:102C20001A9469F760957095809590959B01AC0119
:102C3000BD01CF010895A29FB001B39FC001A39F22
:102C4000700D811D1124911DB29F700D811D1124E5
:102C5000911D08955058BB27AA270E9442160C9434
:102C600043170E94351738F00E943C1720F039F4C2
:102C70009F3F19F426F40C9432170EF4E095E7FB0D
:102C80000C942C17E92F0E94541758F3BA176207B7
:102C900073078407950720F079F4A6F50C9476174E
:102CA0000EF4E0950B2EBA2FA02D0B01B901900167
:102CB0000C01CA01A0011124FF27591B99F0593FAB
:102CC00050F4503E68F11A16F040A22F232F342FF3
:102CD0004427585FF3CF469537952795A795F04041
:102CE0005395C9F77EF41F16BA0B620B730B840B56
:102CF000BAF09150A1F0FF0FBB1F661F771F881F0E
:102D0000C2F70EC0BA0F621F731F841F48F4879565
:102D100077956795B795F7959E3F08F0B0CF939557
:102D2000880F08F09927EE0F9795879508950E94D0
:102D3000081708F481E008950E945C1788F09F57F7
:102D400098F0B92F9927B751B0F0E1F0660F771FCF
:102D5000881F991F1AF0BA95C9F714C0B13091F0C5
:102D60000E947617B1E008950C947617672F782F9C
:102D70008827B85F39F0B93FCCF38695779567958A
:102D8000B395D9F73EF490958095709561957F4FF6
:102D90008F4F9F4F0895E89409C097FB3EF490959C
:102DA0008095709561957F4F8F4F9F4F9923A9F024
:102DB000F92F96E9BB279395F695879577956795B3
:102DC000B795F111F8CFFAF4BB0F11F460FF1BC0F7
:102DD0006F5F7F4F8F4F9F4F16C0882311F096E98A
:102DE00011C0772321F09EE8872F762F05C0662338
:102DF00071F096E8862F70E060E02AF09A95660FF1
:102E0000771F881FDAF7880F9695879597F90895A9
:102E1000990F0008550FAA0BE0E8FEEF16161706EB
:102E2000E807F907C0F012161306E407F50798F053
:102E3000621B730B840B950B39F40A2661F0232B6C
:102E4000242B252B21F408950A2609F4A140A695E8
:102E50008FEF811D811D089597F99F6780E870E0CD
:102E600060E008959FEF80EC089500240A94161600
:102E7000170618060906089500240A941216130668
:102E8000140605060895092E0394000C11F48823F6
:102E900052F0BB0F40F4BF2B11F460FF04C06F5F12
:102EA0007F4F8F4F9F4F089557FD9058440F551FE8
:102EB00059F05F3F71F04795880F97FB991F61F0BC
:102EC0009F3F79F087950895121613061406551F33
:102ED000F2CF4695F1DF08C0161617061806991F9F
:102EE000F1CF86957105610508940895E894BB2794
:102EF00066277727CB0197F908950E94081708F4F1
:102F00008FEF08950E9495170C9443170E94351770
:102F100038F00E943C1720F0952311F00C942C17E8
:102F20000C94321711240C9477170E94541770F3E5
:102F3000959FC1F3950F50E0551F629FF001729F5E
:102F4000BB27F00DB11D639FAA27F00DB11DAA1F6D
:102F5000649F6627B00DA11D661F829F2227B00DBA
:102F6000A11D621F739FB00DA11D621F839FA00D45
:102F7000611D221F749F3327A00D611D231F849F95
:102F8000600D211D822F762F6A2F11249F575040EC
:102F90009AF0F1F088234AF0EE0FFF1FBB1F661F67
:102FA000771F881F91505040A9F79E3F510580F030
:102FB0000C942C170C9477175F3FE4F3983ED4F3EE
:102FC000869577956795B795F795E7959F5FC1F7D4
:102FD000FE2B880F911D9695879597F90895AA1B4A
:102FE000BB1B51E107C0AA1FBB1FA617B70710F0F4
:102FF000A61BB70B881F991F5A95A9F78095909526
:10300000BC01CD01089597FB072E16F4009407D05C
:1030100077FD09D00E94EF1707FC05D03EF490958C
:1030200081959F4F0895709561957F4F0895EE0F9C
:10303000FF1F0590F491E02D09940F931F93CF93F8
:10304000DF938230910510F482E090E0E09171020C
:10305000F091720230E020E0B0E0A0E0309799F407
:103060002115310509F44AC0281B390B24303105DC
:10307000D8F58A819B816115710589F1FB019383E4
:103080008283FE0111C04081518102811381481762
:103090005907E0F04817590799F4109761F0129614
:1030A0000C93129713961C933296CF01DF91CF9118
:1030B0001F910F9108950093710210937202F4CF43
:1030C0002115310551F04217530738F0A901DB01F2
:1030D0009A01BD01DF01F801C1CFEF01F9CF909353
:1030E000720280937102CDCFFE01E20FF31F819334
:1030F00091932250310939832883D7CF20916F02D1
:1031000030917002232B41F4209120013091210154
:103110003093700220936F0220911E0130911F01A5
:103120002115310541F42DB73EB740912201509150
:103130002301241B350BE0916F02F0917002E2171E
:10314000F307A0F42E1B3F0B2817390778F0AC01CA
:103150004E5F5F4F2417350748F04E0F5F1F5093A7
:10316000700240936F02819391939FCFF0E0E0E073
:103170009CCFCF93DF930097E9F0FC013297138245
:103180001282A0917102B0917202ED0130E020E054
:103190001097A1F420813181820F931F20916F023B
:1031A000309170022817390709F061C0F09370025E
:1031B000E0936F02DF91CF910895EA01CE17DF0708
:1031C000E8F54A815B819E0141155105B1F7E9019E
:1031D000FB83EA8349915991C40FD51FEC17FD0772
:1031E00061F4808191810296840F951FE901998392
:1031F0008883828193819B838A83F0E0E0E012964A
:103200008D919C9113970097B9F52D913C91119751
:10321000CD010296820F931F20916F0230917002B0
:103220002817390739F6309751F51092720210922B
:103230007102B0937002A0936F02BCCFD383C2839C
:1032400040815181840F951FC817D90761F44E5FE3
:103250005F4F88819981480F591F518340838A812C
:103260009B81938382832115310509F0B0CFF093C0
:103270007202E09371029ECFFD01DC01C0CF138288
:103280001282D7CF10E0C3E6D0E004C0FE010E9456
:0E32900017182196C436D107C9F7F894FFCF5E
:10329E00F605F605030000006743000067430000D3
:1032AE00674300006743010001FF010000000000BA
:1032BE00730280004D0A4D0A00004D0A00002D08D1
:0632CE004D0A0000400C57
:107E0000112484B714BE81FFF0D085E080938100F7
:107E100082E08093C00088E18093C10086E0809377
:107E2000C20080E18093C4008EE0C9D0259A86E02C
:107E300020E33CEF91E0309385002093840096BBD3
:107E4000B09BFECF1D9AA8958150A9F7CC24DD24C4
:107E500088248394B5E0AB2EA1E19A2EF3E0BF2EE7
:107E6000A2D0813461F49FD0082FAFD0023811F036
:107E7000013811F484E001C083E08DD089C08234E0
:107E800011F484E103C0853419F485E0A6D080C0E4
:107E9000853579F488D0E82EFF2485D0082F10E0AE
:107EA000102F00270E291F29000F111F8ED06801E7
:107EB0006FC0863521F484E090D080E0DECF843638
:107EC00009F040C070D06FD0082F6DD080E0C81688
:107ED00080E7D80618F4F601B7BEE895C0E0D1E017
:107EE00062D089930C17E1F7F0E0CF16F0E7DF06D8
:107EF00018F0F601B7BEE89568D007B600FCFDCFD4
:107F0000A601A0E0B1E02C9130E011968C91119780
:107F100090E0982F8827822B932B1296FA010C0160
:107F200087BEE89511244E5F5F4FF1E0A038BF0790
:107F300051F7F601A7BEE89507B600FCFDCF97BE46
:107F4000E89526C08437B1F42ED02DD0F82E2BD052
:107F50003CD0F601EF2C8F010F5F1F4F84911BD097
:107F6000EA94F801C1F70894C11CD11CFA94CF0C13
:107F7000D11C0EC0853739F428D08EE10CD085E9AC
:107F80000AD08FE07ACF813511F488E018D01DD067
:107F900080E101D065CF982F8091C00085FFFCCF94
:107FA0009093C60008958091C00087FFFCCF809118
:107FB000C00084FD01C0A8958091C6000895E0E648
:107FC000F0E098E1908380830895EDDF803219F02E
:107FD00088E0F5DFFFCF84E1DECF1F93182FE3DFCA
:107FE0001150E9F7F2DF1F91089580E0E8DFEE27F6
:047FF000FF270994CA
:027FFE00040479
:0400000300007E007B
:00000001FF
